:100000000C942A000C943F000C943F000C943F0089
:100010000C943F000C943F000C943F000C943F0064
:100020000C943F000C943F000C943F000C943F0054
:100030000C943F000C943F000C943F000C943F0044
:100040000C943F000C943F000C943F000C943F0034
:100050000C943F0011241FBECFE5D8E0DEBFCDBF1A
:1000600010E0A0E6B0E0EAE6F3E202C005900D92EF
:10007000A238B107D9F70E9446110C94B3110C9421
:100080000000EF92FF920F931F937B018C0120E001
:1000900030E040E05FE40E94410388238CF0C80117
:1000A000B70120E030E040E05FE40E94B9010E9427
:1000B000A1039B01AC01205030404040504806C095
:1000C000C801B7010E94A1039B01AC01B901CA019B
:1000D0001F910F91FF90EF900895A0E0B0E0E3E74B
:1000E000F0E00C947C11DC012B01FA019C91923020
:1000F00008F439C1EB018881823008F433C19430AF
:1001000069F4843009F02FC111969C91119789816F
:10011000981709F428C1A0E6B0E025C1843009F49D
:1001200021C18230A9F4923009F01DC19A01AD01BC
:1001300088E0EA010990AE01E90109929E0181502F
:10014000C1F7E201898111969C918923818308C1BD
:10015000923009F407C112962D903C901397EB0151
:100160008A819B811496AD90BD90CD90DC901797BD
:10017000EC80FD800E811F819101281B390BB90194
:1001800037FF04C066277727621B730B6032710547
:100190000CF061C0121613066CF537014801062EEB
:1001A00004C096948794779467940A94D2F721E0D8
:1001B00030E040E050E004C0220F331F441F551FC1
:1001C0006A95D2F721503040404050402E213F21C7
:1001D00040235123211531054105510521F021E02E
:1001E00030E040E050E079018A01E628F72808294C
:1001F00019293CC0232BD1F1260E371E35014601AB
:10020000062E04C096948794779467940A94D2F744
:1002100021E030E040E050E004C0220F331F441FD3
:10022000551F6A95D2F721503040404050402A2156
:100230003B214C215D21211531054105510521F05E
:1002400021E030E040E050E059016A01A628B728DB
:10025000C828D9280BC0821593052CF01C01AA24AC
:10026000BB24650103C0EE24FF24870111969C91F5
:10027000D20111968C91981709F445C0992339F051
:10028000A80197012A193B094C095D0906C0A6017E
:1002900095012E193F09400B510B57FD08C01182E3
:1002A0003382228224833583468357831DC081E0B5
:1002B00081833382228288279927DC01821B930B5A
:1002C000A40BB50B84839583A683B7830DC0220F3F
:1002D000331F441F551F24833583468357838281F0
:1002E000938101979383828324813581468157814D
:1002F000DA01C9010197A109B1098F5F9F4FAF4F83
:10030000BF4328F30BC0918333822282EA0CFB1C8B
:100310000C1D1D1DE482F5820683178383E0808314
:10032000248135814681578157FF1AC0C901AA2708
:1003300097FDA095BA2F81709070A070B0705695FF
:10034000479537952795822B932BA42BB52B848328
:100350009583A683B7838281938101969383828359
:10036000DF0101C0D201CD01CDB7DEB7E2E10C94CF
:100370009811A0E2B0E0EFEBF1E00C9488116983F2
:100380007A838B839C832D833E834F835887E9E058
:10039000EE2EF12CEC0EFD1ECE010196B7010E944F
:1003A000CA048E010F5E1F4FCE010596B8010E9450
:1003B000CA048A8991E089278A8BC701B801AE01F6
:1003C000475E5F4F0E946D000E94F503A096E6E035
:1003D0000C94A411A0E2B0E0E0EFF1E00C948811DD
:1003E00069837A838B839C832D833E834F835887D5
:1003F000F9E0EF2EF12CEC0EFD1ECE010196B701B7
:100400000E94CA048E010F5E1F4FCE010596B801EF
:100410000E94CA04C701B801AE01475E5F4F0E9447
:100420006D000E94F503A096E6E00C94A411A0E2F2
:10043000B0E0EDE1F2E00C947C1169837A838B8368
:100440009C832D833E834F835887CE010196BE0146
:10045000675F7F4F0E94CA04CE010596BE016F5EA2
:100460007F4F0E94CA049985923088F08989823032
:10047000C8F0943019F4823051F404C0843029F467
:10048000923081F480E690E0C6C0923049F420E0DA
:100490009A858A89981321E02A87CE010996BBC0E4
:1004A000823049F420E09A858A89981321E02A8BCA
:1004B000CE014196B0C02D843E844F8458886D880B
:1004C0007E888F88988CEE24FF248701AA24BB2481
:1004D000650140E050E060E070E0E0E0F0E0C10184
:1004E00081709070892BE9F0E60CF71C081D191D2E
:1004F0009A01AB012A0D3B1D4C1D5D1D80E090E073
:10050000A0E0B0E0E614F7040805190520F481E046
:1005100090E0A0E0B0E0BA01A901480F591F6A1F9E
:100520007B1FAA0CBB1CCC1CDD1C97FE08C081E005
:1005300090E0A0E0B0E0A82AB92ACA2ADB2A3196C6
:10054000E032F10549F0660C771C881C991C569422
:10055000479437942794C3CFFA85EA892B893C893D
:100560008B859C85280F391F2E5F3F4F17C0CA010E
:1005700081709070892B61F016950795F794E79438
:1005800080E090E0A0E0B0E8E82AF92A0A2B1B2BD3
:1005900076956795579547952F5F3F4F77FDE7CF46
:1005A0000CC0440F551F661F771F17FD4160EE0CEE
:1005B000FF1C001F111F21503040403090E05907B0
:1005C00090E0690790E4790760F32B8F3C8FDB01A3
:1005D000CA018F779070A070B07080349105A1052A
:1005E000B10561F447FD0AC0E114F10401051105EC
:1005F00029F0405C5F4F6F4F7F4F40781A8EFE1797
:1006000011F081E08A8F4D8F5E8F6F8F78A383E02A
:10061000898FCE0149960E94F503A096E2E10C94E1
:100620009811A8E1B0E0E7E1F3E00C948811698348
:100630007A838B839C832D833E834F83588789E005
:10064000E82EF12CEC0EFD1ECE010196B7010E94A2
:10065000CA048E010F5E1F4FCE010596B8010E949D
:10066000CA048985823040F08989823028F0C70128
:10067000B8010E94420501C08FEF6896E6E00C9435
:10068000A411A8E1B0E0E7E4F3E00C9488116983D9
:100690007A838B839C832D833E834F83588789E0A5
:1006A000E82EF12CEC0EFD1ECE010196B7010E9442
:1006B000CA048E010F5E1F4FCE010596B8010E943D
:1006C000CA048985823040F08989823028F0C701C8
:1006D000B8010E94420501C08FEF6896E6E00C94D5
:1006E000A411A8E1B0E0E7E7F3E00C948811698376
:1006F0007A838B839C832D833E834F83588789E045
:10070000E82EF12CEC0EFD1ECE010196B7010E94E1
:10071000CA048E010F5E1F4FCE010596B8010E94DC
:10072000CA048985823040F08989823028F0C70167
:10073000B8010E94420501C081E06896E6E00C9491
:10074000A411ACE0B0E0E7EAF3E00C948C1169830B
:100750007A838B839C83CE010196BE016B5F7F4FB2
:100760000E94CA048D81823061F1823050F1843060
:1007700021F48E81882351F12EC02F81388537FDD9
:1007800020C06E812F3131051CF06623F9F023C0A3
:100790008EE190E0821B930B29853A854B855C8521
:1007A00004C056954795379527958A95D2F76623C5
:1007B000B1F050954095309521953F4F4F4F5F4F89
:1007C0000EC020E030E040E050E009C02FEF3FEFE6
:1007D0004FEF5FE704C020E030E040E050E8B901AF
:1007E000CA012C96E2E00C94A811DF92EF92FF92DE
:1007F0000F931F93FC01E480F58006811781D1805F
:100800008081823048F480E090E0A0E1B0E0E82A06
:10081000F92A0A2B1B2BA5C0843009F49FC0823013
:1008200021F4EE24FF24870105C0E114F104010541
:10083000110519F4E0E0F0E096C0628173819FEF4A
:10084000623879070CF05BC022E83FEF261B370BBC
:100850002A3131052CF020E030E040E050E02AC0A1
:10086000B801A701022E04C0769567955795479564
:100870000A94D2F781E090E0A0E0B0E004C0880FD5
:10088000991FAA1FBB1F2A95D2F70197A109B10989
:100890008E219F21A023B1230097A105B10521F04E
:1008A00081E090E0A0E0B0E09A01AB01282B392B69
:1008B0004A2B5B2BDA01C9018F779070A070B07062
:1008C00080349105A105B10539F427FF09C0205CEA
:1008D0003F4F4F4F5F4F04C0215C3F4F4F4F5F4F23
:1008E000E0E0F0E02030A0E03A07A0E04A07A0E412
:1008F0005A0710F0E1E0F0E079018A0127C0603882
:10090000710564F5FB01E158FF4FD801C7018F77EE
:100910009070A070B07080349105A105B10539F4D4
:10092000E7FE0DC080E490E0A0E0B0E004C08FE3FB
:1009300090E0A0E0B0E0E80EF91E0A1F1B1F17FFB1
:1009400005C016950795F794E794319687E01695BC
:100950000795F794E7948A95D1F705C0EE24FF2414
:100960008701EFEFF0E06E2F679566276795902F70
:100970009F77D794DD24D7948E2F8695492F462BC9
:10098000582F5D29B701CA011F910F91FF90EF9079
:10099000DF900895FC01DB01408151812281622FAB
:1009A0006F7770E0221F2227221F9381892F880FE3
:1009B000822B282F30E0991F9927991F11969C931D
:1009C000119721153105A9F54115510561057105ED
:1009D00011F482E037C082E89FEF13969C938E93C8
:1009E00012979A01AB0167E0220F331F441F551F76
:1009F0006A95D1F783E08C930DC0220F331F441FFB
:100A0000551F12968D919C911397019713969C9365
:100A10008E931297203080E0380780E0480780E40A
:100A2000580758F314962D933D934D935C93179765
:100A300008952F3F310579F4411551056105710580
:100A400019F484E08C93089564FF03C081E08C93D3
:100A500012C01C9210C02F57304013963C932E9317
:100A6000129783E08C9387E0440F551F661F771F12
:100A70008A95D1F7706414964D935D936D937C9332
:100A8000179708951F93DC01FB019C91923008F4A5
:100A900047C08081823008F443C0943051F41196ED
:100AA0001C91843099F58181682F70E0611B710978
:100AB0003FC0843021F0923031F48230B9F181812D
:100AC000882389F12DC011961C9111978230F1F085
:100AD00081811817D9F412962D913C911397828138
:100AE00093818217930794F028173907BCF0149666
:100AF0008D919D910D90BC91A02D248135814681D1
:100B00005781281739074A075B0718F4112341F06A
:100B10000AC082179307A407B50740F4112319F000
:100B200061E070E005C06FEF7FEF02C060E070E051
:100B3000CB011F910895DF93CF9300D000D00F9287
:100B4000CDB7DEB78A836B8319828A81282F30E084
:100B50003D832C838C819D8181309105D1F02C8146
:100B60003D81223031052CF48C819D81009761F00C
:100B70001FC02C813D812230310581F08C819D8107
:100B80008330910581F014C0EAE3F0E08B8180832B
:100B900011C0E7E3F0E08B8180830CC0E4E3F0E078
:100BA0008B81808307C0E1E3F0E08B81808302C00A
:100BB00081E0898389810F900F900F900F900F90A3
:100BC000CF91DF910895DF93CF9300D000D00F92A3
:100BD000CDB7DEB78A836B8319828A81282F30E0F4
:100BE0003D832C838C819D8181309105D1F02C81B6
:100BF0003D81223031052CF48C819D81009761F07C
:100C00001FC02C813D812230310581F08C819D8176
:100C10008330910581F014C0EBE3F0E08B81808399
:100C200011C0E8E3F0E08B8180830CC0E5E3F0E0E5
:100C30008B81808307C0E2E3F0E08B81808302C078
:100C400081E0898389810F900F900F900F900F9012
:100C5000CF91DF910895DF93CF9300D000D000D0E3
:100C6000CDB7DEB78A837C836B8319828B819C81AD
:100C7000009709F43EC08A81282F30E03E832D83FF
:100C80008D819E8181309105E1F02D813E81223060
:100C900031052CF48D819E81009761F027C02D8154
:100CA0003E8122303105A1F08D819E8183309105F6
:100CB000B1F01CC0E9E3F0E08081EB81FC8180832E
:100CC0001AC0E6E3F0E08081EB81FC81808313C0F1
:100CD000E3E3F0E08081EB81FC8180830CC0E0E302
:100CE000F0E08081EB81FC81808305C081E0898315
:100CF00002C081E08983898126960FB6F894DEBF11
:100D00000FBECDBFCF91DF910895DF93CF93CDB7C5
:100D1000DEB728970FB6F894DEBF0FBECDBF8A832B
:100D20006B834C8319828B81883008F0F4C08C81EE
:100D3000882309F077C08A81282F30E038872F83F5
:100D40008F8198858130910559F12F813885223026
:100D500031052CF48F819885009769F060C02F8150
:100D600038852230310589F18F819885833091054E
:100D700009F440C054C0AAE3B0E0EAE3F0E08081A7
:100D8000482F8B81282F30E081E090E0022E02C0B6
:100D9000880F991F0A94E2F7809584238C93BDC035
:100DA000A7E3B0E0E7E3F0E08081482F8B81282FB4
:100DB00030E081E090E0022E02C0880F991F0A9473
:100DC000E2F7809584238C93A8C0A4E3B0E0E4E329
:100DD000F0E08081482F8B81282F30E081E090E087
:100DE000022E02C0880F991F0A94E2F7809584238F
:100DF0008C9393C0A1E3B0E0E1E3F0E08081482F61
:100E00008B81282F30E081E090E0022E02C0880F15
:100E1000991F0A94E2F7809584238C937EC081E029
:100E200089837BC08C81813009F072C08A81282F30
:100E300030E03E832D838D819E818130910549F183
:100E40002D813E81223031052CF48D819E810097C9
:100E500061F05BC02D813E812230310571F18D81C1
:100E60009E8183309105E9F150C0AAE3B0E0EAE346
:100E7000F0E08081482F8B81282F30E081E090E0E6
:100E8000022E02C0880F991F0A94E2F7842B8C93DC
:100E900044C0A7E3B0E0E7E3F0E08081482F8B8116
:100EA000282F30E081E090E0022E02C0880F991FC9
:100EB0000A94E2F7842B8C9330C0A4E3B0E0E4E31F
:100EC000F0E08081482F8B81282F30E081E090E096
:100ED000022E02C0880F991F0A94E2F7842B8C938C
:100EE0001CC0A1E3B0E0E1E3F0E08081482F8B81FA
:100EF000282F30E081E090E0022E02C0880F991F79
:100F00000A94E2F7842B8C9308C081E0898305C0A2
:100F100081E0898302C081E08983898128960FB6A8
:100F2000F894DEBF0FBECDBFCF91DF910895DF9360
:100F3000CF93CDB7DEB728970FB6F894DEBF0FBEBC
:100F4000CDBF8A836B834C8319828B81883008F0F4
:100F5000F4C08C81882309F077C08A81282F30E083
:100F600038872F838F8198858130910559F12F81A2
:100F70003885223031052CF48F819885009769F0EF
:100F800060C02F8138852230310589F18F819885A5
:100F90008330910509F440C054C0ABE3B0E0EBE30B
:100FA000F0E08081482F8B81282F30E081E090E0B5
:100FB000022E02C0880F991F0A94E2F780958423BD
:100FC0008C93BDC0A8E3B0E0E8E3F0E08081482F57
:100FD0008B81282F30E081E090E0022E02C0880F44
:100FE000991F0A94E2F7809584238C93A8C0A5E307
:100FF000B0E0E5E3F0E08081482F8B81282F30E0DE
:1010000081E090E0022E02C0880F991F0A94E2F757
:10101000809584238C9393C0A2E3B0E0E2E3F0E0F8
:101020008081482F8B81282F30E081E090E0022ED4
:1010300002C0880F991F0A94E2F7809584238C934D
:101040007EC081E089837BC08C81813009F072C0D1
:101050008A81282F30E03E832D838D819E818130CF
:10106000910549F12D813E81223031052CF48D818D
:101070009E81009761F05BC02D813E812230310559
:1010800071F18D819E8183309105E9F150C0ABE310
:10109000B0E0EBE3F0E08081482F8B81282F30E037
:1010A00081E090E0022E02C0880F991F0A94E2F7B7
:1010B000842B8C9344C0A8E3B0E0E8E3F0E08081A7
:1010C000482F8B81282F30E081E090E0022E02C073
:1010D000880F991F0A94E2F7842B8C9330C0A5E304
:1010E000B0E0E5E3F0E08081482F8B81282F30E0ED
:1010F00081E090E0022E02C0880F991F0A94E2F767
:10110000842B8C931CC0A2E3B0E0E2E3F0E080818A
:10111000482F8B81282F30E081E090E0022E02C022
:10112000880F991F0A94E2F7842B8C9308C081E002
:10113000898305C081E0898302C081E08983898138
:1011400028960FB6F894DEBF0FBECDBFCF91DF91CA
:101150000895DF93CF93CDB7DEB727970FB6F894F6
:10116000DEBF0FBECDBF8A836B835D834C83198244
:101170008B81883008F079C08C819D81009709F4BB
:1011800074C08A81282F30E03F832E834E815F8197
:101190004130510559F18E819F818230910534F49F
:1011A0002E813F812115310569F05CC04E815F8140
:1011B0004230510579F18E819F818330910509F488
:1011C0003DC050C0E9E3F0E08081282F30E08B8102
:1011D000882F90E0A90102C0559547958A95E2F7BE
:1011E000CA018170EC81FD81808341C0E6E3F0E0BB
:1011F0008081282F30E08B81882F90E0A90102C0E8
:10120000559547958A95E2F7CA018170EC81FD8179
:1012100080832DC0E3E3F0E08081282F30E08B81D4
:10122000882F90E0A90102C0559547958A95E2F76D
:10123000CA018170EC81FD81808319C0E0E3F0E098
:101240008081282F30E08B81882F90E0A90102C097
:10125000559547958A95E2F7CA018170EC81FD8129
:10126000808305C081E0898302C081E08983898110
:1012700027960FB6F894DEBF0FBECDBFCF91DF919A
:101280000895DF93CF93CDB7DEB780E060E041E013
:101290000E948506CF91DF910895DF93CF93CDB75C
:1012A000DEB780E060E041E00E949707CF91DF91D8
:1012B0000895DF93CF93CDB7DEB780E060E040E0E4
:1012C0000E949707CF91DF910895DF93CF93CDB719
:1012D000DEB763970FB6F894DEBF0FBECDBF8C8725
:1012E0007E876D871982CE010296988B8F87E8E6FC
:1012F000F0E0FA8BE98BFAE0FB8BE989FA89008050
:1013000089899A8901969A8B898BEF85F889008261
:101310008F8598890196988B8F879B8991509B8B9D
:10132000EB89EE2351F78D859E85009709F45BC00C
:10133000ED85FE858081882369F5ED85FE858281B6
:10134000ED85FE859381692F41E00E948506ED853C
:10135000FE858281ED85FE859381692F41E00E94A3
:101360009707ED85FE8581816FEF0E949B05ED85D6
:10137000FE8541818C85282F30E0CE010296FC014C
:10138000E20FF31F8081982F9095842F692F0E9480
:10139000E3052BC0ED85FE858081813009F5ED8563
:1013A000FE858281ED85FE859381692F40E00E9454
:1013B0008506ED85FE8581816FEF0E949B05ED8599
:1013C000FE8541818C85282F30E0CE010296FC01FC
:1013D000E20FF31F9081842F692F0E94E30505C05F
:1013E00081E0898302C081E08983898163960FB699
:1013F000F894DEBF0FBECDBFCF91DF910895DF938C
:10140000CF93CDB7DEB780E060E041E00E94850673
:1014100080E061E041E00E948506CF91DF91089570
:10142000DF93CF93CDB7DEB72E970FB6F894DEBF1C
:101430000FBECDBF80E061E040E00E94970780E0F2
:1014400060E041E00E94970780E090E0AAE7B4E402
:101450008B879C87AD87BE876B857C858D859E85B8
:1014600020E030E04AEF54E40E941702DC01CB0197
:101470008F839887A987BA876F81788589859A85B0
:1014800020E030E040E85FE30E94710388232CF401
:1014900081E090E09E838D833FC06F817885898550
:1014A0009A8520E03FEF4FE757E40E94110318169A
:1014B0004CF56B857C858D859E8520E030E040E293
:1014C00051E40E941702DC01CB01BC01CD010E9456
:1014D0004100DC01CB019E838D830FC088EC90E03E
:1014E0009C838B838B819C810197F1F79C838B83F9
:1014F0008D819E8101979E838D838D819E81009732
:1015000069F714C06F81788589859A850E944100AA
:10151000DC01CB019E838D838D819E819A8389839B
:1015200089819A810197F1F79A8389832E960FB664
:10153000F894DEBF0FBECDBFCF91DF910895DF934A
:10154000CF93CDB7DEB72E970FB6F894DEBF0FBEA0
:10155000CDBF80E060E040E00E94970780E061E05E
:1015600041E00E94970780E090E0AAE7B4E48B870F
:101570009C87AD87BE876B857C858D859E8520E0A9
:1015800030E04AEF54E40E941702DC01CB018F8364
:101590009887A987BA876F81788589859A8520E0A1
:1015A00030E040E85FE30E94710388232CF481E07F
:1015B00090E09E838D833FC06F81788589859A8571
:1015C00020E03FEF4FE757E40E94110318164CF557
:1015D0006B857C858D859E8520E030E040E251E47E
:1015E0000E941702DC01CB01BC01CD010E94410029
:1015F000DC01CB019E838D830FC088EC90E09C833F
:101600008B838B819C810197F1F79C838B838D81E8
:101610009E8101979E838D838D819E81009769F7BE
:1016200014C06F81788589859A850E944100DC010C
:10163000CB019E838D838D819E819A83898389814D
:101640009A810197F1F79A8389832E960FB6F894C1
:10165000DEBF0FBECDBFCF91DF910895DF93CF9353
:10166000CDB7DEB72E970FB6F894DEBF0FBECDBF55
:1016700080E060E040E00E94970780E061E040E0A9
:101680000E94970780E090E0AAEFB3E48B879C87E5
:10169000AD87BE876B857C858D859E8520E030E09B
:1016A0004AEF54E40E941702DC01CB018F83988734
:1016B000A987BA876F81788589859A8520E030E08F
:1016C00040E85FE30E94710388232CF481E090E0FE
:1016D0009E838D833FC06F81788589859A8520E0C0
:1016E0003FEF4FE757E40E94110318164CF56B8546
:1016F0007C858D859E8520E030E040E251E40E94AB
:101700001702DC01CB01BC01CD010E944100DC01CC
:10171000CB019E838D830FC088EC90E09C838B83EC
:101720008B819C810197F1F79C838B838D819E81B6
:1017300001979E838D838D819E81009769F714C0E8
:101740006F81788589859A850E944100DC01CB01F3
:101750009E838D838D819E819A83898389819A81DD
:101760000197F1F79A8389832E960FB6F894DEBF1E
:101770000FBECDBFCF91DF910895DF93CF9300D0FF
:10178000CDB7DEB79A838983E981FA818281882384
:10179000A9F4E981FA818081E981FA819181692F37
:1017A00041E00E948506E981FA818081E981FA8120
:1017B0009181692F41E00E94970719C0E981FA8160
:1017C00082818130A1F4E981FA818081E981FA8105
:1017D0009181692F41E00E948506E981FA8180812B
:1017E000E981FA819181692F40E00E9497070F906B
:1017F0000F90CF91DF910895DF93CF9300D0CDB7B5
:10180000DEB79A838983E981FA8182818823A9F4EA
:10181000E981FA818081E981FA819181692F41E032
:101820000E948506E981FA818081E981FA819181AE
:10183000692F40E00E94970719C0E981FA818281EF
:101840008130A1F4E981FA818081E981FA81918175
:10185000692F41E00E948506E981FA818081E98152
:10186000FA819181692F41E00E9497070F900F90B4
:10187000CF91DF910895DF93CF93CDB7DEB72F9748
:101880000FB6F894DEBF0FBECDBF8F8783E067E051
:1018900040E00E94970783E066E040E00E949707DF
:1018A00082E06F850E94E30583E065E041E00E94ED
:1018B000970780E090E0A0E0B0E48B879C87AD873D
:1018C000BE876B857C858D859E8520E030E04AEF64
:1018D00054E40E941702DC01CB018F839887A9870B
:1018E000BA876F81788589859A8520E030E040E865
:1018F0005FE30E94710388232CF481E090E09E83D3
:101900008D833FC06F81788589859A8520E03FEF80
:101910004FE757E40E94110318164CF56B857C8540
:101920008D859E8520E030E040E251E40E94170260
:10193000DC01CB01BC01CD010E944100DC01CB01E7
:101940009E838D830FC088EC90E09C838B838B817A
:101950009C810197F1F79C838B838D819E810197F8
:101960009E838D838D819E81009769F714C06F815E
:10197000788589859A850E944100DC01CB019E8390
:101980008D838D819E819A83898389819A81019734
:10199000F1F79A83898383E065E040E00E9497072E
:1019A0002F960FB6F894DEBF0FBECDBFCF91DF915B
:1019B0000895DF93CF93CDB7DEB72F970FB6F89486
:1019C000DEBF0FBECDBF8F8783E067E041E00E949E
:1019D000970783E066E040E00E94970782E06F850A
:1019E0000E94E30583E065E041E00E94970780E004
:1019F00090E0A0E0B0E48B879C87AD87BE876B85C5
:101A00007C858D859E8520E030E04AEF54E40E947D
:101A10001702DC01CB018F839887A987BA876F8172
:101A2000788589859A8520E030E040E85FE30E9470
:101A3000710388232CF481E090E09E838D833FC066
:101A40006F81788589859A8520E03FEF4FE757E4DD
:101A50000E94110318164CF56B857C858D859E853B
:101A600020E030E040E251E40E941702DC01CB01AB
:101A7000BC01CD010E944100DC01CB019E838D831E
:101A80000FC088EC90E09C838B838B819C810197B5
:101A9000F1F79C838B838D819E8101979E838D833B
:101AA0008D819E81009769F714C06F817885898543
:101AB0009A850E944100DC01CB019E838D838D813C
:101AC0009E819A83898389819A810197F1F79A830C
:101AD000898383E065E040E00E9497072F960FB668
:101AE000F894DEBF0FBECDBFCF91DF910895DF9395
:101AF000CF93CDB7DEB72E970FB6F894DEBF0FBEEB
:101B0000CDBF83E065E041E00E94850683E066E0AA
:101B100041E00E94850683E067E041E00E9485067F
:101B200080E090E0A0E2B2E48B879C87AD87BE871F
:101B30006B857C858D859E8520E030E04AEF54E4FE
:101B40000E941702DC01CB018F839887A987BA878F
:101B50006F81788589859A8520E030E040E85FE3F1
:101B60000E94710388232CF481E090E09E838D8392
:101B70003FC06F81788589859A8520E03FEF4FE7E8
:101B800057E40E94110318164CF56B857C858D85F2
:101B90009E8520E030E040E251E40E941702DC0123
:101BA000CB01BC01CD010E944100DC01CB019E8331
:101BB0008D830FC088EC90E09C838B838B819C810C
:101BC0000197F1F79C838B838D819E8101979E8382
:101BD0008D838D819E81009769F714C06F81788510
:101BE00089859A850E944100DC01CB019E838D830B
:101BF0008D819E819A83898389819A810197F1F7EA
:101C00009A83898382E06FEF0E949B0588E30E949C
:101C10003B0C8CE00E943B0C81E00E943B0C2E961A
:101C20000FB6F894DEBF0FBECDBFCF91DF91089500
:101C3000DF93CF9300D00F92CDB7DEB78A836B834B
:101C400019828A81882319F48B81898306C08A814D
:101C5000813019F48B81805C8983898180688983D4
:101C600089810E943B0C0F900F900F90CF91DF91D4
:101C70000895DF93CF93CDB7DEB727970FB6F894CB
:101C8000DEBF0FBECDBF9C838B836D834E832F83BE
:101C90001A828D81882F90E0880F991F880F991FD5
:101CA000880F991F8A838A8180648A838A810E942F
:101CB0003B0C19820EC08981282F30E08B819C81DA
:101CC000FC01E20FF31F80810E94D90C89818F5F94
:101CD00089838981883078F38E816F810E94180E04
:101CE0008D810E94D90C27960FB6F894DEBF0FBEE7
:101CF000CDBFCF91DF910895DF93CF9300D00F92A6
:101D0000CDB7DEB79B838A8319820EC08981282FC5
:101D100030E08A819B81FC01E20FF31F80810E94E9
:101D2000D90C89818F5F89838981282F30E08A814E
:101D30009B81FC01E20FF31F8081882339F70F900C
:101D40000F900F90CF91DF910895EF92FF920F9334
:101D50001F93DF93CF93CDB7DEB762970FB6F8949A
:101D6000DEBF0FBECDBF9A8B898B1D8289899A8970
:101D700018161906BCF489899A899C838B830DC037
:101D80008B819C812AE030E0B9010E946911CB016E
:101D90009C838B838D818F5F8D838B819C8100974A
:101DA00079F738C089899A899923D4F489899A89DD
:101DB000909581959F4F9C838B830DC08B819C81D7
:101DC0002AE030E0B9010E946911CB019C838B832A
:101DD0008D818F5F8D838B819C81009779F71AC0ED
:101DE0008D81282F332727FD30954989CE0106960E
:101DF000FC01E20FF31F40838D81282F332727FD3D
:101E00003095CE010696FC01E20FF31F8081805DC4
:101E10000E94D90C8D8118160CF0E4C089899A892A
:101E2000181619060CF05EC01A8257C08A81E82E77
:101E3000FF2409891A898D81992787FD909501973B
:101E40009C018AE090E0B9010E94FF0F9C01C8014B
:101E5000B9010E945511CB01282FCE010696FC0135
:101E6000EE0DFF1D2083E988FA888A81282F30E053
:101E7000CE010696FC01E20FF31F8081082F112787
:101E800007FD10958D81992787FD909501979C01FD
:101E90008AE090E0B9010E94FF0F9C01029FC001FF
:101EA000039F900D129F900D11249701281B390B51
:101EB000C9019A8B898B8D8181508D838A81282FCE
:101EC00030E0CE010696FC01E20FF31F8081805DB9
:101ED0000E94D90C8A818F5F8A838D81882309F0C3
:101EE000A5CF80C019828D81282F332727FD3095FB
:101EF000CE010696FC01E20FF31F8DE280838D81F7
:101F0000282F332727FD3095CE010696FC01E20FDE
:101F1000F31F80810E94D90C89818F5F8983898911
:101F20009A89909581959F4F9A8B898B57C089810B
:101F3000E82EFF2409891A898D81992787FD9095BC
:101F400001979C018AE090E0B9010E94FF0F9C017B
:101F5000C801B9010E945511CB01282FCE01069668
:101F6000FC01EE0DFF1D2083E988FA888981282F66
:101F700030E0CE010696FC01E20FF31F8081082FAE
:101F8000112707FD10958D81992787FD9095019761
:101F90009C018AE090E0B9010E94FF0F9C01029F22
:101FA000C001039F900D129F900D11249701281BD3
:101FB000390BC9019A8B898B8D8181508D838981E1
:101FC000282F30E0CE010696FC01E20FF31F80813E
:101FD000805D0E94D90C89818F5F89838D818823E0
:101FE00009F0A5CF62960FB6F894DEBF0FBECDBF45
:101FF000CF91DF911F910F91FF90EF900895DF93A4
:10200000CF9300D000D000D0CDB7DEB79C838B83B8
:102010007E836D838B819C819A8389838D819E8150
:102020000097C1F481E090E09C838B8313C02B81E7
:102030003C8189819A81AC01249FC001259F900D2C
:10204000349F900D11249C838B838D819E810197F9
:102050009E838D838D819E818230910540F78B8197
:102060009C8126960FB6F894DEBF0FBECDBFCF91F0
:10207000DF910895DF93CF93CDB7DEB780E063E0C3
:1020800041E00E94850680E062E041E00E94850612
:1020900080E061E041E00E94850680E060E041E090
:1020A0000E94850680E063E041E00E94970780E09F
:1020B00062E041E00E94970780E061E041E00E9419
:1020C000970780E060E041E00E94970780E064E0CD
:1020D00040E00E94850680E065E040E00E948506C1
:1020E00080E066E040E00E94850680E067E040E036
:1020F0000E94850680E064E041E00E94970780E04E
:1021000065E041E00E94970780E066E041E00E94C0
:10211000970780E067E041E00E949707CF91DF9149
:102120000895DF93CF93CDB7DEB7A2970FB6F8949B
:10213000DEBF0FBECDBF8AEA898383E08D8382E054
:102140008E8381E08F83188684E0898785E08A8783
:1021500086E08B8787E08C87CE010D969F8F8E8FD0
:10216000E2E7F0E0F9A3E8A3F0E1FAA3E8A1F9A11E
:10217000008088A199A1019699A388A3EE8DFF8D77
:1021800000828E8D9F8D01969F8F8E8F9AA1915088
:102190009AA3EAA1EE2351F71B8268C08B81282FF6
:1021A00030E0CE010596FC01E20FF31F908180E044
:1021B000692F40E00E9497071A8243C08A81282F26
:1021C00030E0CE010996FC01E20FF31F90819E01E1
:1021D0002C5F3F4F80E0692FA9010E94A9088C81E4
:1021E000882361F58A81282F30E08B81482F50E0C9
:1021F000220F331F220F331FCE010196820F931F30
:10220000840F951FFC013C968081898311C08A81CF
:10221000282F30E0CE010996FC01E20FF31F9081D8
:102220009E012C5F3F4F80E0692FA9010E94A90801
:102230008C81882361F3F981FD8F1EC08A818F5FB5
:102240008A838A81843008F4B9CF8B81282F30E0CB
:10225000CE010596FC01E20FF31F908180E0692F0B
:1022600041E00E9497078B818F5F8B838B81843045
:1022700008F494CF89818D8F8D8DA2960FB6F89436
:10228000DEBF0FBECDBFCF91DF910895DF93CF9317
:10229000CDB7DEB70E94FF090E949F0A0E942E0B55
:1022A0000E94100A0E942E0BF7CFAA1BBB1B51E104
:1022B00007C0AA1FBB1FA617B70710F0A61BB70BB6
:1022C000881F991F5A95A9F780959095BC01CD015B
:1022D000089597FB092E07260AD077FD04D0E5DF85
:1022E00006D000201AF4709561957F4F0895F6F797
:1022F000909581959F4F08952F923F924F925F92B4
:102300006F927F928F929F92AF92BF92CF92DF9205
:10231000EF92FF920F931F93CF93DF93CDB7DEB76A
:10232000CA1BDB0B0FB6F894DEBF0FBECDBF0994FE
:102330002A88398848885F846E847D848C849B8455
:10234000AA84B984C884DF80EE80FD800C811B8163
:10235000AA81B981CE0FD11D0FB6F894DEBF0FBE92
:0A236000CDBFED010895F894FFCF02
:10236A0000000000000000003F065B4F666D7D071D
:10237A007F6F000102030405060708090A0B0C0D0A
:02238A000E0F34
:00000001FF
